:100000000C945D000C9485000C9485000C94850084
:100010000C9485000C9485000C9485000C9485004C
:100020000C9485000C9485000C9485000C9485003C
:100030000C9485000C9485000C9485000C9485002C
:100040000C9462020C9485000C94D2020C94AC02C5
:100050000C9485000C9485000C9485000C9485000C
:100060000C9485000C94850000000008000201003B
:100070000003040700000000000000000000000072
:10008000250028002B0000000000240027002A0083
:10009000040404040404040402020202020203032E
:1000A0000303030301020408102040800102040836
:1000B0001020010204081020B80311241FBECFEF46
:1000C000D8E0DEBFCDBF11E0A0E0B1E0EAEDF7E09F
:1000D00002C005900D92AA34B107D9F721E0AAE435
:1000E000B1E001C01D92A03FB207E1F710E0CDE5FD
:1000F000D0E004C02197FE010E94E503CC35D10772
:10010000C9F70E9404030C94EB030C94000090E0E8
:10011000FC01EC55FF4F249180579F4FFC018491C7
:10012000882399F090E0880F991FFC01EA57FF4F50
:10013000A591B491FC01E458FF4F859194918FB73C
:10014000F894EC91E22BEC938FBF089590E0FC01C2
:10015000E859FF4F2491FC01EC55FF4F3491FC010D
:10016000E057FF4FE491EE23C9F0222339F023300A
:1001700001F1A8F4213019F1223029F1F0E0EE0F5D
:10018000FF1FE458FF4FA591B4918FB7F894EC91FD
:10019000611126C030953E233C938FBF08952730D0
:1001A000A9F02830C9F0243049F7809180008F7D74
:1001B00003C0809180008F7780938000DFCF84B56B
:1001C0008F7784BDDBCF84B58F7DFBCF8091B0006E
:1001D0008F778093B000D2CF8091B0008F7DF9CF20
:1001E0003E2BDACF3FB7F89480914F0190915001A8
:1001F000A0915101B091520126B5A89B05C02F3F97
:1002000019F00196A11DB11D3FBFBA2FA92F982F3C
:100210008827BC01CD01620F711D811D911D42E037
:10022000660F771F881F991F4A95D1F708958F92FF
:100230009F92AF92BF92CF92DF92EF92FF920E9475
:10024000F2004B015C0180EDC82E87E0D82EE12C36
:10025000F12C0E94F200681979098A099B09683E0D
:10026000734081059105A8F321E0C21AD108E10885
:10027000F10888EE880E83E0981EA11CB11CC11401
:10028000D104E104F10429F7FF90EF90DF90CF90C3
:10029000BF90AF909F908F900895AF92BF92CF92F2
:1002A000DF92EF92FF920F931F93CF93DF936C0136
:1002B0007B018B01040F151FEB015E01AE18BF0817
:1002C000C017D10759F06991D601ED91FC910190C9
:1002D000F081E02DC6010995892B79F7C501DF91E1
:1002E000CF911F910F91FF90EF90DF90CF90BF9033
:1002F000AF900895FC01538D448D252F30E0842F5D
:1003000090E0821B930B541710F0CF96089501973D
:100310000895FC01918D828D981761F0A28DAE0F2A
:10032000BF2FB11D5D968C91928D9F5F9F73928FB1
:1003300090E008958FEF9FEF0895FC01918D828DDD
:10034000981731F0828DE80FF11D858D90E00895AA
:100350008FEF9FEF0895FC01918D228D892F90E002
:10036000805C9F4F821B91098F739927089583E5C5
:1003700091E00E94AB0121E0892B09F420E0822F5B
:10038000089580E090E0892B29F00E94B701811147
:100390000C9400000895FC01A48DA80FB92FB11D85
:1003A000A35ABF4F2C91848D90E001968F739927AB
:1003B000848FA689B7892C93A089B1898C91837089
:1003C00080648C93938D848D981306C00288F38982
:1003D000E02D80818F7D80830895EF92FF920F93AF
:1003E0001F93CF93DF93EC0181E0888F9B8D8C8DE1
:1003F00098131AC0E889F989808185FF15C09FB7D5
:10040000F894EE89FF896083E889F9898081837097
:10041000806480839FBF81E090E0DF91CF911F9146
:100420000F91FF90EF900895F62E0B8D10E00F5F67
:100430001F4F0F731127E02E8C8D8E110CC00FB63D
:1004400007FCFACFE889F989808185FFF5CFCE01D5
:100450000E94CB01F1CFEB8DEC0FFD2FF11DE35A84
:10046000FF4FF0829FB7F8940B8FEA89FB89808158
:100470008062CFCFCF93DF93EC01888D8823B9F0D2
:10048000AA89BB89E889F9898C9185FD03C080819F
:1004900086FD0DC00FB607FCF7CF8C9185FFF2CF1C
:1004A000808185FFEDCFCE010E94CB01E9CFDF91A6
:1004B000CF91089542E050E062E171E083E591E080
:1004C0000C944D011F920F920FB60F9211242F938F
:1004D0003F938F939F93AF93BF9380914B019091E4
:1004E0004C01A0914D01B0914E0130914A0123E0A1
:1004F000230F2D3758F50196A11DB11D20934A01F8
:1005000080934B0190934C01A0934D01B0934E0109
:1005100080914F0190915001A0915101B0915201F1
:100520000196A11DB11D80934F0190935001A0939E
:100530005101B0935201BF91AF919F918F913F9123
:100540002F910F900FBE0F901F90189526E8230F44
:100550000296A11DB11DD2CF1F920F920FB60F921E
:1005600011242F933F934F935F936F937F938F93B8
:100570009F93AF93BF93EF93FF9383E591E00E9426
:10058000CB01FF91EF91BF91AF919F918F917F919F
:100590006F915F914F913F912F910F900FBE0F90F0
:1005A0001F9018951F920F920FB60F9211242F9340
:1005B0008F939F93EF93FF93E0916301F091640118
:1005C0008081E0916901F0916A0182FD1BC09081F8
:1005D00080916C018F5F8F7320916D01821741F0C4
:1005E000E0916C01F0E0ED5AFE4F958F80936C0125
:1005F000FF91EF919F918F912F910F900FBE0F90D0
:100600001F9018958081F4CF789484B5826084BD62
:1006100084B5816084BD85B5826085BD85B5816006
:1006200085BD80916E00816080936E001092810084
:10063000809181008260809381008091810081603F
:100640008093810080918000816080938000809100
:10065000B10084608093B1008091B000816080938C
:10066000B00080917A00846080937A0080917A0053
:10067000826080937A0080917A00816080937A0012
:1006800080917A00806880937A001092C10080E0A7
:100690000E94870061E080E00E94A60082E10E9443
:1006A000870083E10E94870061E082E10E94A6004A
:1006B000E0916301F091640182E08083E0915F0149
:1006C000F09160011082E0916101F091620180E19E
:1006D000808310926B01E0916701F091680186E0E0
:1006E0008083E0916501F091660180818061808363
:1006F000E0916501F0916601808188608083E091DE
:100700006501F0916601808180688083E0916501D8
:10071000F091660180818F7D8083C0E0D0E049E167
:1007200050E065E171E083E591E00E944D010E9497
:100730005A0260E083E10E94A6000E9417014AE18C
:1007400050E06FE271E083E591E00E944D010E946C
:100750005A0261E083E10E94A6000E9417012097DF
:10076000F1F20E94B7018823D1F20E940000D7CF96
:10077000E3E5F1E01382128288EE93E0A0E0B0E0BE
:1007800084839583A683B78384E091E091838083FB
:1007900085EC90E09587848784EC90E09787868746
:1007A00080EC90E0918B808B81EC90E0938B828B3E
:1007B00082EC90E0958B848B86EC90E0978B868B17
:1007C000118E128E138E148E0895EE0FFF1F05905A
:0A07D000F491E02D0994F894FFCF96
:1007DA0000000000ED014D017A013A02AB018901E6
:1007EA009D010D0A0053454C202D3E204C4F572E9B
:1007FA00204F75747075742064692059302E005327
:10080A00454C202D3E20484947482E204F7574708C
:0A081A0075742064692059312E0026
:00000001FF
